:100000000C944C4E0C947D4E0C947D4E0C947D4E75
:100010000C947D4E0C9418A60C947D4E0C947D4E41
:100020000C94A3A50C947D4E0C94FBD50C947D4EA2
:100030000C947D4E0C947D4E0D94AD4D0C9432CBB2
:100040000C947D4E0D946C0D0C947D4E0C947D4E55
:100050000C947D4E0C947D4E0C947D4E0C942FD5BB
:100060000C947D4E0C94E4C50C947D4E0C947D4E06
:100070000C947D4E0C947D4E0C947D4E0C947D4ED4
:100080000C947D4E0C947D4E0C947D4E0C947D4EC4
:100090000C94A0C50C947D4E0C947D4E0C947D4E1A
:1000A0000C947D4E0C947D4E0C94AACA0C947D4EFB
:1000B0000C947D4E0C948CCA0C947D4E0C947D4E09
:1000C0000C947D4E0C947D4E0C947D4E0C94DEC9A8
:1000D0000C947D4E0C947D4E0C947D4E0C947D4E74
:1000E0000C947D4E6DB576B519B5E8B4B8B492B838
:1000F000B1B5D6B69CB7F2B70EB845B84BD559D501
:1001000067D574D586D58DD5AFD5C5D52FDA31DA7B
:100110002FDA31DA2FDA31DA33DA35DAC5EDE5ED17
:10012000F7ED06EE12EE4FEEAFED67EE7DEE77EEF9
:10013000AFED80EE8DEE94EEACEE5CF403F45CF487
:100140005FF4D0F401F55CF45CF423F57101710106
:1001500069017101690195028B0233026B02810210
:100160000302D301A3015702C3018901A901CB01F5
:100170009F021F026D02F50191013702A701610282
:10018000F7016302A1015701430289028502A70119
:1001900091021302E3013D022D0299012F027F011A
:1001A00087017102AD015D026902230249027701F4
:1001B000B5018701CF01AD02DF0159026D01A30234
:1001C0008B01BB017D020B0285013102DB01530172
:1001D00001029B01084AD73B3BCE016E84BCBFFDA8
:1001E000C12F3D6C74319ABD56833DDA3D00C77F07
:1001F00011BED9E4BB4C3E916BAAAABE00000080A0
:100200003F05A84CCDB2D44EB93836A9020C50B92E
:10021000918688083CA6AAAA2ABE000000803F0753
:10022000634236B79BD8A71A39685618AEBAAB5591
:100230008C1D3CB7CC5763BD6DEDFD753EF6177256
:1002400031BF000000803F08000000BE9224491228
:100250003EABAAAA2ABECDCCCC4C3E00000080BE4C
:10026000ABAAAAAA3E00000000BF000000803F0029
:1002700000000000084178D3BB4387D1133D190E1D
:100280003CC3BD4282AD2B3E68EC8276BED98FE185
:10029000A93E4C80EFFFBE01C4FF7F3F000000007D
:1002A00000000D9462080D94EB7C0D94A6820D94D1
:1002B000331B0D94C3840D94EC1B0D94FB1B0D9408
:1002C000CEC90D947F470D94B58F0D942A960D9449
:1002D000D7940D94D5000D94C7810D945F7C0D9437
:1002E000D81C0D94D2000D94D4820D947E040D94EC
:1002F000061E0D94CE6F0D94E6800D9422960D94FB
:10030000BF1D0D94FD840D9484460D94B97C0D940D
:10031000381E0D94E6030D94877C0D943B810D945B
:10032000998F0D94101B0D9477090D94241C0D9436
:10033000A3080D94AB1D0D94FA7C0D9441970D9478
:100340005F1B0D942F1B0D9480030D940A960D9442
:10035000541B0D944E030D94001C0D94D11D0D944F
:10036000236A0D94321C0D94500C0D94101E0D94A4
:1003700025010D9410910D94A77C0D9451840D943A
:100380004E960D94A7700D94F6030D9478800D94FD
:10039000F11B0D948F840D9420030D94F1410D9465
:1003A0001A1E0D9419700D948B030D94E2950D9403
:1003B00069850D94F6210D94D17C0D94EA910D94EC
:1003C0002E1E0D942A480D944F1B0D94BC940D9431
:1003D000A4830D947C460D9483800D945B1B0D9437
:1003E000DD1B0D94FD090D9488970D940C1B0D9445
:1003F000251B0D94C0450D94D8250D9405440D94EE
:1004000086090D94EE7C0D9496030D9476080D9458
:1004100019600D9453250D94AD7C0D94C5940D94E5
:10042000416A0D9412960D944B1B0D94CE940D942D
:10043000E6830D9483080D94EE080D941A960D949E
:100440001A1B0D94A0240D94ED1D0D9430470D94AE
:10045000C18F0D94415B0D94641B0D94A61D0D94EA
:10046000B51D0D94C57C0D9499010D9402960D94C3
:10047000161B0D9498080D94EA950D94A11D0D94EA
:1004800046450D94D11C0D94391B0D94041C0D94FC
:1004900039480D94F71D0D94C3040D9473460D94C3
:1004A000E71B0D94DE440D94E9820D943D970D9465
:1004B00075030D94537C0D940B440D94D91D0D942C
:1004C0009C820D94211B0D942B1B0D947B920D94FB
:1004D00076440D94E31D0D94D1030D941D1B0D94D2
:1004E000BC800D94C91D0D94551B0D94F3820D9481
:1004F0003A960D94B1820D948C040D94AA7C0D94BF
:1005000032960D94A1030D94DB820D94411B0D9442
:1005100045970D943D1B0D94E6000D9413840D94A6
:1005200049830D94471B0D94FA950D94E3000D94A7
:1005300085D60D94F61B0D9433850D9455810D943D
:10054000EE020D94D8950D94727C0D94E21B0D94DF
:1005500045010D94E2820D94F2950D94241E5F5393
:1005600045435F4C414E4700000000000000000082
:10057000000000000000000000000000000000007B
:10058000000000000000000000000000000000006B
:10059000000000000000000000000000000000005B
:1005A000000000000000000000000000000000004B
:1005B000000000000000000000000000000000003B
:1005C000000000000000000000000000000000002B
:1005D000000000000000000000000000000000001B
:1005E000000000000000000000000000000000000B
:1005F00000000000000000000000000000000000FB
:10060000A55AB44BBD2D72014DAD72667201DB1659
:10061000F4024003500363037303860393039903B7
:100620009F03B203F2032A0433043E044F04700410
:10063000780479049204BC04BD04CF04E2042F05BD
:1006400079058B058F059F05AF05BE05D305E5052B
:1006500043064A065506590669069106A106AE06E6
:10066000B906C2063C074A07C207D707D807E00702
:10067000EE07EF07020812082C083908A708B60889
:10068000DE08DF08E608EC08ED080009AF09B0094C
:100690000D0A180A290A390A4C0A520A590A840A08
:1006A000930A9B0AAD0AF40AF50AFD0A100B200B07
:1006B0002A0B3C0B4A0B580B660B7A0B860B930BE1
:1006C000A10BC90BDD0BF10B020C150C160C3C0C2D
:1006D0004C0C5D0CBD0CF70CFC0CFD0C110D1C0D35
:1006E000300D450D770D890D910D0B0E0C0E1D0E65
:1006F000300E450E5A0E6E0E7F0E930EA60EB90EDC
:10070000CC0EDF0EF20EF30E3E0F6A0F770F8B0F3B
:100710009F0FC50FDA0FA0101211231133113A11D8
:10072000461156116811C811D911EE1101120E129D
:100730001E12341243125012511289128A12AD1233
:10074000CF12DE12E912FE121013241325134E13DA
:100750004F135613851396139D13A813B413C21386
:10076000C913D813E313EE13F9130B141B141C1441
:1007700020142D1456146414CB14FF1404154F15B3
:100780008E159915AA15B515C915D915ED1580162B
:10079000BE16FB1605177B17AF17E317141836188C
:1007A0006F18A018CC181519281956196B19781933
:1007B000A519A619BB19F819F919091A1C1A311A21
:1007C000461A521A651A791A8D1ABC1A311B3C1B2B
:1007D000971BFD1B231C241C311C5A1C9C1CB11C88
:1007E000FF1C001D131D211D361D491D551D5E1DBD
:1007F000CA1DD31DDB1DE21D191E281E351E451EF8
:100800004F1E611E761EC11E191F271F281F291F7C
:100810002A1F331F431F501F9B1F9F1FA51FAB1F66
:10082000B81FB91FCA1FCF1FDC1FE01FE11F242004
:100830002D2035203C2088209520A820B020B120F4
:10084000B920D320E0201D212F215621E32114229D
:10085000152216229722A622B822BF22C922DA2206
:10086000EF220323122324232B233D2346234E234D
:1008700065239E23CB2353248B24B224D724F8242E
:100880000A2514252725532557259F25D9252C26AC
:100890002D2638267F26D8262F2741278F27E32786
:1008A00035284728F6282F293A293B293C2943296E
:1008B000512964296B296C2974297A29842988296A
:1008C00096299729C029C929E829EF29FA29372A21
:1008D000AC2AF72A7A2BC82B452C4C2C602C752C73
:1008E000D02C662D672D702D7D2D8A2D912D922D6A
:1008F000A32DAE2D5B252E37735D416A7573742E63
:10090000206475205A0A56616C65757220656E7296
:1009100065672C20636F6E74696E0A6F752064655D
:10092000706172742061207A65726F3F0A2563439B
:100930006F6E74696E7565722563526573657400B8
:1009400020302E33206F75202B616E6369656E0039
:1009500046532076302E33206F75202B616E6369ED
:10096000656E0020302E34206F75202B7265636514
:100970006E740046532076302E34206F75202B7213
:100980006563656E74004574617420696E636F6E93
:100990006E75002064652034002064652039004FA6
:1009A000666673657420706F696E74205B303B30CF
:1009B0005D004C6120646574656374696F6E2064CA
:1009C000650A63726173682070657574206574725E
:1009D000650A616374697665207365756C656D651C
:1009E0006E7420656E0A6D6F6465204E6F726D6166
:1009F0006C00415454454E54494F4E3A0A44657474
:100A0000656374696F6E2064652063726173680A40
:100A10006465736163746976656520656E0A6D6FE0
:100A2000646520667572746966003E416E6E756C11
:100A3000657200416A7573746572205A3A00546F8A
:100A400075742065737420636F72726563740054EB
:100A50006F75742065737420707265742E20426FF8
:100A60006E6E6520696D7072657373696F6E2100BB
:100A7000416D6269616E740000657420617070750B
:100A800079657A20737572206C6520626F75746F5A
:100A90006E005A7E63617272696167657320676177
:100AA00075636865202B2064726F69746520746FAC
:100AB000757420656E20686175743F00004D697320
:100AC0006520612030206465732061786573004182
:100AD00075746F6368617267652064752066696C00
:100AE0002E004368617267656D656E742061757470
:100AF0006F2064752066696C616D656E7420756E1B
:100B0000697175656D656E74207369206C6520630D
:100B10006170746575722064652066696C616D65CD
:100B20006E7420657374206163746976652E00436A
:100B300068617267656D656E74206175746F2E20D3
:100B400064752066696C2E206163746976652C205B
:100B50006170707579657A20737572206C6520629A
:100B60006F75746F6E20657420696E736572657A37
:100B7000206C652066696C2E004C6F6E677565751C
:100B800072206465206C2761786500417865004CAF
:100B90006974202F2043686175666661676500503F
:100BA0006C6174656175207465726D696E65004372
:100BB000686175666665206475206C697400436FB2
:100BC00072722E206E697665617520706C61746535
:100BD0006175005465737420646520636F7572726B
:100BE0006F69652000436170742E206E6F6E206403
:100BF00065636C656E6368652070656E64616E74B4
:100C000020717565206A65206E6976656C65206C5B
:100C10006520706C61746561752E2044656272692F
:100C2000732073757220627573653F20456E206175
:100C30007474656E7465206427756E2072657365C3
:100C4000742E004272696C6C2E004C756D696E6F6B
:100C500073697465004C6974005374617475742011
:100C6000636F7572726F696500436F757075726539
:100C70002064657465637465652E205265707265C5
:100C80006E64726520696D7072657373696F6E3F13
:100C90000043616C69622E206D69736520612030AC
:100CA0000043616C69627265722058595A00436151
:100CB0006C6962726572205A0043616C6962726588
:100CC000720043616C6962726174696F6E20646561
:100CD0002058595A2E20546F75726E657A206C65B3
:100CE00020626F75746F6E20706F75722066616917
:100CF0007265206D6F6E746572206C2765787472F2
:100D000075646575722064616E73206C2761786507
:100D1000205A206A75737175276175782062757421
:100D20006565732E20436C697175657A20756E65F3
:100D300020666F697320666169742E0043616C6977
:100D400062726174696F6E205A0043616C696272ED
:100D50006174696F6E206465205A2E20546F75721D
:100D60006E657A206C6520626F75746F6E20706F8F
:100D70007572206661697265206D6F6E7465722090
:100D80006C276578747275646575722064616E7322
:100D9000206C27617865205A206A75737175276108
:100DA0007578206275746565732E20436C69717562
:100DB000657A20756E6520666F6973206661697457
:100DC0002E0043616C6962726174696F6E20746594
:100DD000726D696E65650000416E6E756C657200BE
:100DE00043617274652072657469726565000043C1
:100DF0006F756C65757220696E636F72726563746E
:100E00006500526566726F6964697373656D656EBE
:100E10007400436F70696572206C61206C616E674D
:100E200075652063686F697369653F004465746523
:100E300063742E63726173680043686F69736973CA
:100E400073657A20756E2066696C616D656E7420BD
:100E5000706F7572206C612043616C69627261749D
:100E6000696F6E206465206C61205072656D6965E4
:100E7000726520436F756368652065742073656CC7
:100E8000656374696F6E6E657A2D6C65206465703C
:100E9000756973206C65206D656E752061206C2707
:100EA000656372616E2E00437261736820646574BD
:100EB000656374652E0043726173682064657465B0
:100EC0006374652E20506F75727375697672652034
:100ED0006C27696D7072657373696F6E3F000041B6
:100EE000637475656C00446174653A000044657311
:100EF00061637469766572206D6F746575727300D5
:100F00004C612064697374616E636520656E7472F0
:100F100065206C6120706F696E7465206465206C5B
:100F2000612062757365206574206C612073757231
:100F30006661636520647520706C617465617520FD
:100F40006E27612070617320656E636F7265206526
:100F50007465207265676C65652E205375697665CA
:100F60007A206C65206D616E75656C2C20636861FC
:100F70007069747265205072656D69657273207056
:100F800061732C2073656374696F6E2043616C69B3
:100F900062726174696F6E206465206C612070728A
:100FA000656D6965726520636F756368652E000005
:100FB000566F756C657A2D766F75732072656661F4
:100FC000697265206C27657461706520706F757239
:100FD000207265616A7573746572206C6120686146
:100FE000757465757220656E747265206C6120621F
:100FF000757365206574206C6520706C6174656123
:101000007520636861756666616E743F00436F7238
:10101000726563742D453A0052656D6F6E7465722A
:10102000206C652066696C2E004C652066696C2E0C
:101030002072656D6F6E7465004275746565206E13
:101040006F6E2061747465696E74650042757465B5
:10105000650042757465657300457272657572202E
:101060002D206C61206D656D6F69726520737461F0
:1010700074697175652061206574652065637261AE
:1010800073656500436F7570652066696C616D6599
:101090006E7400436F7570657572004A6520636FEA
:1010A0007570652066696C616D656E74004552529D
:1010B0004555523A204C6520636170746575722005
:1010C00064652066696C616D656E74206E65207262
:1010D00065706F6E64207061732C2076657269662E
:1010E00069657A206C65206272616E6368656D6502
:1010F0006E742E00004552524555523A0056656EA8
:1011000074696C6F206578747275646575723A00E5
:10111000496E666F732065787472756465757200C8
:1011200045787472756465757200537461742E200D
:1011300064276563686563204D4D5500462E206128
:1011400075746F63686172672E00537461742E202A
:101150006427656368656300566974657373652009
:1011600076656E742E005465737420647520766500
:101170006E74696C6174657572005665726966207B
:1011800076656E742E0043617074657572204669D1
:101190006C2E0046696E732066696C616D656E74B5
:1011A0000046696C616D656E742065787472756453
:1011B00065206574206176656320626F6E6E6520C0
:1011C000636F756C6575723F0046696C616D656E25
:1011D00074206E6F6E206368617267650043617092
:1011E000746575722064652066696C616D656E74E6
:1011F0000046696C616D656E74207574696C697305
:10120000650054656D7073206427696D7072657335
:1012100073696F6E00004669636869657220696E64
:10122000636F6D706C65742E20436F6E74696E759C
:101230006572207164206D656D653F004D6F757638
:10124000656D656E742066696E616C0043616C2E1D
:10125000203165726520636F75636865004427619E
:10126000626F72642C206A652076616973206C61FC
:101270006E636572206C65204175746F2D746573A3
:101280007420706F75722076657269666965722068
:101290006C65732070726F626C656D657320642776
:1012A000617373656D626C616765206C6573207036
:1012B0006C757320636F6D6D756E732E00436F7266
:1012C000726967657A206C652070726F626C656DFB
:1012D00065206574206170707579657A2073757208
:1012E000206C6520626F75746F6E20737572206C50
:1012F00061204D4D552E00466C7578000056656E88
:1013000074696C6F20696D7072206176616E743FD4
:10131000004176616E74205B756D5D0056656E747C
:10132000696C6F73206176742F67617563686500FF
:101330004368617566666167652F546865726D699B
:1013400073746F72004368617566666167652064D7
:1013500065736163746976656520706172206C6580
:1013600020636F6D707465757220646520736563AA
:1013700075726974652E00436861756666652074D0
:1013800065726D696E65652E004368617566666598
:1013900000426F6E6A6F75722C206A6520737569E2
:1013A0007320766F74726520696D7072696D616EFD
:1013B0007465204F726967696E616C205072757335
:1013C000612069332E20566F756C657A2D766F75A6
:1013D0007320717565206A6520766F757320677557
:1013E00069646520612074726176657273206C6532
:1013F0002070726F636573737573206427696E73F1
:1014000074616C6C6174696F6E3F00004368616E5B
:101410006765722066696C616D656E740043686112
:101420006E67656D656E74207265757373692100F2
:101430004368616E676520636F7272656374656D82
:10144000656E743F0056657269662E20706C61741B
:1014500065617520636861756600566572696669C5
:10146000636174696F6E206275746565730056659B
:101470007269662E20647520686F74656E6400560C
:10148000657269662E20646573206361707465758A
:10149000727300566572696669636174696F6E2064
:1014A0006178652058005665726966696361746980
:1014B0006F6E2061786520590056657269666963B0
:1014C0006174696F6E20617865205A0043686F69A6
:1014D000736972206578747275646575723A004339
:1014E000686F69782064752066696C616D656E74DB
:1014F0003A00004A652076616973206D61696E74F7
:10150000656E616E74206C616E636572206C612023
:1015100063616C6962726174696F6E2058595A2EEA
:101520002043656C61207072656E64726120313297
:10153000206D696E20656E7669726F6E2E004A6549
:101540002076616973206D61696E74656E616E7479
:10155000206C616E636572206C612063616C6962EE
:10156000726174696F6E205A2E00456372616E203D
:101570006427696E666F00496E736572657A206CC8
:10158000652066696C616D656E740046696C2E201D
:101590006573742D696C206368617267653F0045EF
:1015A0007374206C6120706C617175652073757245
:1015B000206C6520706C61742E20636861756666AE
:1015C000616E743F00456368656373206465726E85
:1015D0006965726520696D702E00426F6E6A6F7565
:1015E000722C206A65207375697320766F7472653A
:1015F00020696D7072696D616E7465204F726967E4
:10160000696E616C2050727573612069332E204AB7
:1016100065207661697320766F7573206163636FEF
:101620006D7061676E657220617520636F7572738E
:10163000206427756E20627265662070726F636524
:1016400073737573206465207265676C6167652CC0
:1016500020717569207065726D65747472612064A3
:10166000652063616C6962726572206C65205A2D19
:10167000617869732E2041707265732063656C61B7
:101680002C20746F7574207365726120707265749C
:1016900020706F757220696D7072696D65722E00B1
:1016A000536920766F7573206176657A20642761AF
:1016B000757472657320666575696C6C65732064FA
:1016C0002761636965722C202063616C69627265B1
:1016D0007A206C65757273207072652D7265676C07
:1016E000616765732064616E73205265676C616722
:1016F0006573202D20436F6E666967204857202D43
:1017000020506C6171756520656E2061636965723A
:101710002E004465726E6965726520696D70726530
:10172000732E0056656E74696C6F2067617563680F
:10173000653F00476175636865004761756368656B
:10174000205B756D5D00436F7272656374696F6EC7
:10175000206C696E2E00416A7573746572205A2080
:10176000656E206469722E00566575696C6C657AC9
:1017700020696E7365726572206C652066696C61A4
:101780006D656E742028206E65206C65206368612D
:101790007267657A20706173292064616E73206CB2
:1017A000276578747275646575722C20707569731D
:1017B000206170707579657A20737572206C652070
:1017C000626F75746F6E2E00436861726765722078
:1017D00066696C616D656E740043686172672E2086
:1017E0006465206C6120636F756C65757200436879
:1017F000617267656D656E742064752066696C2E14
:1018000000506F756C6965206C61636865004368A2
:101810006172676572206C612062757365004D317D
:1018200031372043616C2E203165726520636F75FE
:10183000636865004D656E75207072696E636970CE
:10184000616C004E6976656175206272696C6C002E
:10185000004A65206D6573757265206C6120686152
:101860007574657572206465207265666572656E53
:10187000636520647520706F696E742064652063F1
:10188000616C69627261676500004D4D55204F4B78
:101890002E2052657072697365206465206C61202A
:1018A000706F736974696F6E202E2E2E004D4D552A
:1018B000204F4B2E205265636861756666616765CF
:1018C000206465206C6120627573652E2E2E0044A5
:1018D00065766961742E6D65737572656500456323
:1018E00068656373204D4D550045636865632063EB
:1018F00068617267656D656E74204D4D5500456376
:10190000686563732063686172672E204D4D5500D2
:101910004D4D55204F4B2E205265707269736520D6
:101920002E2E2E00004669726D77617265204D4B38
:101930003320646574656374652073757220696D06
:101940007072696D616E7465204D4B3353000046B3
:101950007572746966004C65204D4D55206E656347
:10196000657373697465206C27617474656E74693E
:101970006F6E206465206C277574696C697361747F
:101980006575722E0045636865637320616C696DCF
:101990002E204D4D5500467572746966005075696C
:1019A00073732E6175746F0048617574652070756E
:1019B000697373004D4D553220636F6E6E656374AD
:1019C00065004D6F74657572004465706C61636588
:1019D00072206C27617865004465706C6163657284
:1019E0002058004465706C6163657220590044653D
:1019F000706C61636572205A0050617320646520C9
:101A00006D6F7576656D656E742E00506173206420
:101A10006520636172746520534400004E6F6E0050
:101A20004E6F6E20636F6E6E65637465004E6F75EA
:101A300076656C6C652076657273696F6E2064657F
:101A4000206669726D7761726520646973706F6E6C
:101A500069626C653A004E6520746F75726E652020
:101A6000706173004D61696E74656E616E74206A99
:101A70006520766169732063616C696272657220AA
:101A80006C612064697374616E636520656E747245
:101A900065206C6120706F696E7465206465206CD0
:101AA000612062757365206574206C6120737572A6
:101AB0006661636520647520706C61746561752072
:101AC000636861756666616E742E004D61696E743F
:101AD000656E616E74206A6520766169732070722C
:101AE000656368617566666572206C6120627573F6
:101AF0006520706F757220647520504C412E004235
:101B000075736500416E6369656E73207265676CFD
:101B1000616765732074726F757665732E204C65EE
:101B2000205049442C206C65732045737465707394
:101B3000206574632E20706172206465666175741F
:101B4000207365726F6E74207265676C65730052E6
:101B500065746972657A206D61696E74656E616E17
:101B600074206C27696D7072657373696F6E206481
:101B7000652074657374206465206C6120706C61ED
:101B800071756520656E2061636965722E0056650A
:101B90006E742E20627573650050617573652064E4
:101BA00065206C27696D70722E0043616C69622E2E
:101BB000205049440043616C69622E205049442002
:101BC0007465726D696E65650043616C696272610E
:101BD00074696F6E2050494400436861756666659C
:101BE000206465206C612050494E444100506C6176
:101BF00063657A20756E6520666575696C6C652015
:101C000064652070617069657220736F7573206CF4
:101C10006120627573652070656E64616E74206CFE
:101C2000612063616C6962726174696F6E206465C2
:101C3000732034207072656D6965727320706F69EE
:101C40006E74732E205369206C6120627573652059
:101C5000616363726F636865206C65207061706991
:101C600065722C2065746569676E657A2076697483
:101C700065206C27696D7072696D616E74652E00E8
:101C80004E6574746F79657A20706C6174656175E6
:101C900020636861756666616E7420656E2061639D
:101CA000696572206574206170707579657A20733A
:101CB0007572206C6520626F75746F6E2E004E65B4
:101CC00074746F79657A206C612062757365207019
:101CD0006F7572206C612063616C696272617469F6
:101CE0006F6E2E20436C697175657A20756E652064
:101CF000666F697320666169742E00566572696645
:101D000069657A3A004D6572636920646520636F86
:101D10006E73756C746572206E6F747265206D6180
:101D20006E75656C20657420646520636F727269DE
:101D3000676572206C652070726F626C656D652ED0
:101D400020506F757273756976657A20616C6F7259
:101D500073206C27617373697374616E7420656E90
:101D600020726564656D617272616E74206C2769A2
:101D70006D7072696D616E74652E004F7576726557
:101D80007A206C2769646C657220657420726574B2
:101D90006972657A206C652066696C616D656E7428
:101DA000206D616E75656C6C656D656E742E00508E
:101DB0006C6163657A206C6120706C61717565205F
:101DC000656E20616369657220737572206C652091
:101DD000706C617465617520636861756666616EBB
:101DE000742E004170707579657A20737572206C5D
:101DF0006520626F75746F6E20706F7572206465F8
:101E000063686172676572206C652066696C616DDC
:101E1000656E74005265746972657A20696D6D65CE
:101E200064696174656D656E74206C652066696CAB
:101E3000616D656E7400566575696C6C657A2072AB
:101E4000657469726572206C652066696C616D6588
:101E50006E742070756973206170707579657A2071
:101E6000737572206C6520626F75746F6E2E0052F0
:101E700065746972657A206C6120706C617175653A
:101E800020656E20616369657220647520706C61E5
:101E90007465617520636861756666616E742E0095
:101EA000566575696C6C657A20642761626F72642F
:101EB000206C616E636572206C612063616C696285
:101EC000726174696F6E2058595A2E005665756993
:101ED0006C6C657A206D65747472652061206A6F20
:101EE0007572206C65206669726D77617265206419
:101EF0006520766F747265204D4D55322E20456EEB
:101F000020617474656E7465206427756E20726537
:101F10007365742E004D657263692064652070617D
:101F20007469656E746572005265746972657A20B1
:101F3000642761626F7264206C65732070726F74C5
:101F4000656374696F6E73206465207472616E736B
:101F5000706F72742E005072656368617566666595
:101F60007A206C6120627573652100507265636828
:101F70006175666661676500507265636861756664
:101F800066616765206465206C6120627573652EEB
:101F9000204D657263692064652070617469656EA7
:101FA0007465722E00004D657474657A2061206A34
:101FB0006F7572206C652046572E004170707579E0
:101FC000657A20737572206C6520626F75746F6E10
:101FD00020706F75722070726563686175666665E2
:101FE00072206C61206275736520657420636F6E6A
:101FF00074696E7565722E0000436F75702E64658E
:1020000020636F7572616E7400496D7072657373D1
:10201000696F6E20616E6E756C65650043686175F1
:1020200066666520706F757220636861726765729D
:102030000043686175662E706F7572206465636811
:1020400061726765720056656E742E20696D7072DC
:102050003A00496D70722E20646570756973206C4A
:1020600061205344004170702E2073757220737587
:102070007220626F75746F6E00496D707265737354
:10208000696F6E20656E20706175736500417070B8
:102090007579657A20737572206C6520626F75742E
:1020A0006F6E20706F757220726563686175666609
:1020B0006572206C6120627573652E004C27696D16
:1020C0007072696D616E7465206E27612070617336
:1020D00020656E636F7265206574652063616C694D
:1020E000627265652E2053756976657A206C65206D
:1020F0006D616E75656C2C206368617069747265C2
:10210000205072656D69657273207061732C207345
:10211000656374696F6E2050726F63657373757356
:102120002064652063616C6962726174696F6E2EF0
:102130000056656E742E20696D7072005665756963
:102140006C6C657A20696E7365726572206C6520AF
:1021500066696C616D656E742064616E73206C27B6
:102160006578747275646575722C2070756973205A
:102170006170707579657A20737572206C65206264
:102180006F75746F6E20706F7572206C6520636858
:1021900061726765722E00566575696C6C657A2090
:1021A000696E7365726572206C652066696C616D1D
:1021B000656E742064616E73206C65207072656D4D
:1021C0006965722074756265206475204D4D552CCB
:1021D0002070756973206170707579657A207375E8
:1021E00072206C6520626F75746F6E20706F7572EF
:1021F000206C6520636861726765722E0056657594
:10220000696C6C657A20642761626F726420636810
:10221000617267657220756E2066696C616D656EAE
:10222000742E000041727269657265205B756D5D88
:10223000005356502C2064656368617267657A208C
:102240006C652066696C616D656E742065742072C2
:10225000656573736179657A2E005356502C20762C
:102260006572696669657A206C6120636F6E6E6560
:1022700078696F6E20647520636170746575722073
:102280004952206574206465636861726765206CDB
:10229000652066696C616D656E742E0052656375AC
:1022A000702E20696D7072657373696F6E202020C7
:1022B000005265746972657A206C27616E63696586
:1022C0006E2066696C616D656E742070756973202F
:1022D0006170707579657A20737572206C65206203
:1022E0006F75746F6E20706F7572206368617267AE
:1022F0006572206C65206E6F75766561752E0000C5
:102300005265696E69742E2063616C69622E205873
:10231000595A005265696E697469616C69736572B6
:102320000052657072656E64726520696D707265C9
:102330007373696F6E0052657072697365206465AE
:10234000206C27696D70722E0044726F697465206D
:102350005B756D5D00506F727420525069004C6166
:102360006E63656D656E74206465206C27417373C0
:10237000697374616E74207375707072696D6572C3
:1023800061206C657320726573756C746174732061
:1023900061637475656C732064652063616C696248
:1023A000726174696F6E20657420636F6D6D656E08
:1023B000636572612064752064656275742E2043C4
:1023C0006F6E74696E7565723F004361727465204B
:1023D000534400466C73684169720044726F6974BB
:1023E0006500526563686572636865206475207076
:1023F0006F696E742064652063616C6962726174D8
:10240000696F6E20647520706C61746561752063FE
:102410006861756666616E740043686F697369729E
:10242000206C616E677565004175746F2D746573FE
:1024300074204F4B004465627574206175746F2D74
:1024400074657374004175746F2D74657374004501
:102450007272657572206175746F2D746573742165
:10246000004563686563206465206C276175746F3F
:102470002D74657374004C652053656C66746573C8
:10248000742073657261206C616E636520706F7576
:10249000722063616C6962726572206C6120726582
:1024A0006D6973652061207A65726F207072656353
:1024B0006973652073616E732063617074657572F2
:1024C0000053656C656374696F6E6E657A206C612C
:1024D0002074656D70657261747572652064652025
:1024E0007072656368617566666167652064652002
:1024F0006C6120627573652071756920636F7272FB
:102500006573706F6E64206120766F747265206DE4
:10251000617465726961752E005265676C65722021
:1025200074656D702E3A000000005265676C61673B
:1025300065730041666669636865722062757465DB
:102540006573004574617420636170746575720011
:102550004365727461696E73206669636869657248
:1025600073206E65207365726F6E742070617320C6
:1025700074726965732E204D617820313030206689
:10258000696368696572732074726965732070612C
:102590007220646F73736965722E00547269004112
:1025A0007563756E0048657572650044657669618E
:1025B000742E7365762E3A00005472692064657338
:1025C00020666963686965727300466F72740044BF
:1025D00065766961742E6C65672E3A00536F6E00E4
:1025E0000050726F626C656D652072656E636F6E10
:1025F0007472652C20636C697175657A20737572CD
:10260000206C6520626F75746F6E20706F7572201C
:102610006E6976656C6C6572206C27617865205AEE
:102620002E2E2E00556E6520666F697300566974F4
:102630006573736500546F75726E6500556E652025
:1026400074656D706572617475726520616D626923
:10265000616E746520737461626C652064652032FC
:10266000312D32364320657420756E20737570707D
:102670006F727420737461626C6520736F6E742066
:102680007265717569732E0053746174697374692E
:1026900071756573004172726574657220696D7041
:1026A00072657373696F6E004152524554452E0036
:1026B00000456368616E67650053656C65637469A6
:1026C0006F6E6E657A206C652066696C616D656EF3
:1026D000743A0043616C69622E2054656D702E005F
:1026E00053656C656374696F6E6E657A206C6120EA
:1026F00074656D706572617475726520717569209D
:10270000636F72726573706F6E64206120766F7490
:102710007265206D617465726961752E0043616C2C
:102720006962726174696F6E2074656D702E004508
:1027300063686563206465206C612063616C696215
:10274000726174696F6E20656E2074656D7065725C
:102750006174757265004C612063616C69627261BD
:1027600074696F6E20656E2074656D70657261743A
:1027700075726520657374207465726D696E656528
:1027800020657420616374697665652E204C612034
:1027900063616C6962726174696F6E20656E20742A
:1027A000656D7065726174757265207065757420F1
:1027B000657472652064657361637469766565200C
:1027C00064616E73206C65206D656E75205265675F
:1027D0006C616765732D3E2043616C2E2054656DDE
:1027E000702E00436170746575722076657269663B
:1027F00069652C207265746972657A206C65206643
:10280000696C616D656E74206D61696E74656E6171
:102810006E742E000000496C206661757420746F20
:10282000756A6F7572732065666665637475657227
:10283000206C612043616C6962726174696F6E2003
:102840005A2E20566575696C6C657A2073756976A9
:102850007265206C65206D616E75656C2C206368F7
:10286000617069747265205072656D69657273205C
:102870007061732C2073656374696F6E2050726F82
:102880006365737375732064652063616C6962723C
:102890006174696F6E2E0046696C616D656E74209F
:1028A000746F74616C0054656D707320746F746123
:1028B0006C20696D70722E005265676C6572004401
:1028C000656368617267657200546F74616C20643F
:1028D00065732065636865637300706F757220634C
:1028E000686172676572206C652066696C2E007085
:1028F0006F757220646563686172676572206669CE
:102900006C2E004465636861726765722066696C4D
:102910002E0044656368617267656D656E7420663C
:10292000696C2E00546F74616C65005574696C6934
:1029300073652070647420696D70722E0054656E2A
:1029400073696F6E7300696E636F6E6E75004174AC
:1029500074656E7465207574696C697361746575EE
:10296000722E2E2E00417474656E7465206475207D
:10297000726566726F6964697373656D656E7420E4
:10298000646573206275736520657420706C617472
:1029900065617520636861756666616E7400417477
:1029A00074656E746520647520726566726F696403
:1029B000697373656D656E74206465206C61207346
:1029C0006F6E64652050494E4441005574696C69CE
:1029D00073657A2052656D6F6E746572206C652028
:1029E00066696C2E20706F757220726574697265ED
:1029F00072206C652066696C616D656E7420312093
:102A00007327696C20646570617373652064752039
:102A100074756265206172726965726520647520E3
:102A20004D4D552E205574696C6973657A20656A21
:102A30006563746572207327696C20657374206305
:102A4000616368652064616E73206C6520747562D3
:102A5000652E00417474656E74696F6E3A20547906
:102A6000706573206427696D7072696D616E74653D
:102A7000206574206465206361727465206D6572E1
:102A800065206D6F64696669657300417474656E75
:102A900074696F6E3A2054797065206465206361B3
:102AA000727465206D657265206D6F646966696515
:102AB0002E00417474656E74696F6E3A205479709B
:102AC00065206427696D7072696D616E7465206D33
:102AD0006F64696669650044656368617267656D06
:102AE000656E742064752066696C616D656E742016
:102AF0007265757373693F00457272657572206403
:102B000065206361626C616765004173736973740A
:102B1000616E740044657461696C732063616C69F3
:102B2000622E2058595A0045636865632063616CC2
:102B30006962726174696F6E2058595A2E20436F12
:102B40006E73756C74657A206C65206D616E756549
:102B50006C2E004F756900566F757320706F757617
:102B6000657A20746F756A6F7572732072656C6117
:102B70006E636572206C27417373697374616E7440
:102B80002064616E732043616C6962726174696F65
:102B90006E203E20417373697374616E742E00431E
:102BA000616C6962726174696F6E2058595A204F66
:102BB0004B2E204C2765636172742073657261200F
:102BC000636F7272696765206175746F6D61746996
:102BD0007175656D656E742E0043616C696272611A
:102BE00074696F6E2058595A204F4B2E204C6573D4
:102BF000206178657320582F5920736F6E74206C94
:102C000065676572656D656E74206E6F6E207065A8
:102C10007270656E646963756C61697265732E208C
:102C2000426F6E20626F756C6F74210000436F728B
:102C3000726563742D583A0043616C696272617405
:102C4000696F6E2058595A204F4B2E204C657320C7
:102C50006178657320582F5920736F6E74207065EA
:102C60007270656E646963756C61697265732E203C
:102C700046656C696369746174696F6E73210043A2
:102C8000616C6962726174696F6E2058595A206371
:102C90006F6D70726F6D6973652E204C6573207057
:102CA0006F696E74732064652063616C6962726120
:102CB00074696F6E20656E206176616E74206E653A
:102CC00020736F6E7420706173206174746569671E
:102CD0006E61626C65732E0043616C69627261742F
:102CE000696F6E2058595A20636F6D70726F6D69ED
:102CF00073652E204C6520706F696E7420646520AA
:102D000063616C6962726174696F6E206176616E75
:102D1000742064726F6974206E276573742070610B
:102D200073206174746569676E61626C652E00431F
:102D300068617267657220756E2070617220756EB1
:102D40000045636865632063616C696272617469E0
:102D50006F6E2058595A2E204C6520706F696E7422
:102D60002064652063616C6962726174696F6E20B2
:102D7000647520706C6174656175206E27612070C8
:102D80006173206574652074726F7576652E0045D9
:102D9000636865632063616C6962726174696F6EF8
:102DA0002058595A2E204C657320706F696E7473C9
:102DB0002064652063616C6962726174696F6E2062
:102DC000656E206176616E74206E6520736F6E741F
:102DD00020706173206174746569676E61626C65EF
:102DE000732E0045636865632063616C696272617C
:102DF00074696F6E2058595A2E204C6520706F6987
:102E00006E742064652063616C6962726174696FBD
:102E10006E206176616E742064726F6974206E2713
:102E200065737420706173206174746569676E6185
:102E3000626C652E0044697374616E63652059206D
:102E40006475206D696E004C27696D7072696D61E3
:102E50006E746520636F6D6D656E63657261206170
:102E60002020696D7072696D657220756E65206CC9
:102E700069676E6520656E207A69672D7A61672EB5
:102E800020546F75726E657A206C6520626F757460
:102E90006F6E206A7573717527612061747465693E
:102EA0006E647265206C612068617574657572204E
:102EB0006F7074696D616C652E20436F6E73756CF5
:102EC00074657A206C65732070686F746F7320640A
:102ED000616E73206C65206D616E75656C20286372
:102EE000686170697472652043616C6962726174B3
:102EF000696F6E292E00566572696669636174692F
:102F00006F6E20656E2065636865632C2072657442
:102F10006972657A206C652066696C616D656E7496
:102F20002065742072656573736179657A2E00433C
:102F30006F72726563742D593A0000005265746FA8
:102F4000757200566572696669636174696F6E7344
:102F50000046617578206465636C656E6368656DB5
:102F6000656E740046494E44413A000053747269DC
:102F700063746500417665727400436F6E666967BD
:102F80002048570049523A00436F6D70656E732EAA
:102F90002061696D2E00004669726D77617265204F
:102FA0004D4B33532064657465637465207375728B
:102FB00020696D7072696D616E7465204D4B3300D0
:102FC0004D6F6465204D4D55004368616E67656DBA
:102FD000656E74206465206D6F646520656E206386
:102FE0006F7572732E2E2E004D6F64656C650044F4
:102FF00069616D2E2062757365004C6520472D63F5
:103000006F646520612065746520707265706172FF
:103010006520706F757220756E206E6976656175BA
:1030200020646966666572656E742E20436F6E74E7
:10303000696E7565723F004C6520472D636F64654E
:103040002061206574652070726570617265207002
:103050006F757220756E206E697665617520646982
:1030600066666572656E742E20566575696C6C6552
:103070007A206465636F75706572206C65206D6F72
:1030800064656C652061206E6F75766561752E20B4
:103090004C27696D7072657373696F6E206120656E
:1030A000746520616E6E756C65652E004C652047F9
:1030B0002D636F6465206120657465207072657092
:1030C00061726520706F757220756E652061757410
:1030D00072652076657273696F6E206465206C2757
:1030E000696D7072696D616E74652E20436F6E74C8
:1030F000696E7565723F004C6520472D636F64658E
:103100002061206574652070726570617265207041
:103110006F757220756E65206175747265207665B5
:103120007273696F6E206465206C27696D707269B7
:103130006D616E74652E20566575696C6C657A20BC
:103140006465636F75706572206C65206D6F646572
:103150006C652061206E6F75766561752E204C2739
:10316000696D7072657373696F6E20612065746537
:1031700020616E6E756C65652E004C6520472D6371
:103180006F6465206120657465207072657061727E
:103190006520706F757220756E6520766572736933
:1031A0006F6E20706C757320726563656E74652038
:1031B0006475206669726D776172652E20436F6E4B
:1031C00074696E7565723F004C6520472D636F64AE
:1031D000652061206574652070726570617265207C
:1031E000706F757220756E652076657273696F6E8B
:1031F00020706C757320726563656E7465206475EC
:10320000206669726D776172652E20566575696CEE
:103210006C657A206D65747472652061206A6F75C3
:1032200072206C65206669726D776172652E204C24
:1032300027696D7072657373696F6E20616E6E754C
:103240006C65652E0050494E44413A0043686175F3
:1032500066666520706F757220636F7570657200A9
:1032600043686175662E20706F75722072656D6F90
:103270006E746572004469616D6574726520646581
:10328000206C6120627573652064616E73206C65CB
:1032900073207265676C61676573206E6520636F6C
:1032A00072726573706F6E64207061732061206349
:1032B000656C75692064616E73206C6520472D43D1
:1032C0006F64652E20436F6E74696E7565723F0082
:1032D0004469616D65747265206465206C6120626B
:1032E0007573652064616E73206C65732072656709
:1032F0006C61676573206E6520636F7272657370B1
:103300006F6E642070617320612063656C75692045
:1033100064616E73206C6520472D436F64652E20B9
:103320004D657263692064652076657269666965BA
:1033300072206C6520706172616D657472652064C5
:10334000616E73206C6573207265676C616765736D
:103350002E20496D7072657373696F6E20616E6E99
:10336000756C65652E000052656E6F6D6D6572003F
:1033700053656C656374696F6E6E657200496E6645
:103380006F206361707465757200506C6171756552
:103390000000506C617175657320656E2061636912
:1033A000657200436F72726563742D5A3A004D6501
:1033B000737572657220782D666F69730000000066
:1033C00000000000000000000000000000000000FD
:1033D00000000000000000000000000000000000ED
:1033E00000000000000000000000000000000000DD
:1033F00000000000000000000000000000000000CD
:1034000000000000000000000000000000000000BC
:1034100000000000000000000000000000000000AC
:10342000000000000000000000000000000000009C
:10343000000000000000000000000000000000008C
:10344000000000000000000000000000000000007C
:10345000000000000000000000000000000000006C
:10346000000000000000000000000000000000005C
:10347000000000000000000000000000000000004C
:10348000000000000000000000000000000000003C
:10349000000000000000000000000000000000002C
:1034A000000000000000000000000000000000001C
:1034B000000000000000000000000000000000000C
:1034C00000000000000000000000000000000000FC
:1034D00000000000000000000000000000000000EC
:1034E00000000000000000000000000000000000DC
:1034F00000000000000000000000000000000000CC
:1035000000000000000000000000000000000000BB
:1035100000000000000000000000000000000000AB
:10352000000000000000000000000000000000009B
:10353000000000000000000000000000000000008B
:10354000000000000000000000000000000000007B
:1035500000000000000000000000000000005E010C
:10356000472D636F646520736C6963656420666FC3
:1035700072206120646966666572656E74206C6590
:1035800076656C2E20436F6E74696E75653F005FC3
:1035900001472D636F646520736C69636564206601
:1035A0006F72206120646966666572656E74206C56
:1035B0006576656C2E20506C656173652072652D93
:1035C000736C69636520746865206D6F64656C2039
:1035D000616761696E2E205072696E742063616E3E
:1035E00063656C6C65642E006301472D636F6465D1
:1035F00020736C6963656420666F722061206E655C
:10360000776572206669726D776172652E20506CE5
:1036100065617365207570646174652074686520E8
:103620006669726D776172652E205072696E7420C2
:1036300063616E63656C6C65642E006201472D6387
:103640006F646520736C6963656420666F722061C6
:10365000206E65776572206669726D776172652E7E
:1036600020436F6E74696E75653F006001472D637E
:103670006F646520736C6963656420666F72206196
:1036800020646966666572656E74207072696E7416
:10369000657220747970652E20436F6E74696E7543
:1036A000653F006101472D636F646520736C69633A
:1036B000656420666F722061206469666665726564
:1036C0006E74207072696E74657220747970652EE4
:1036D00020506C656173652072652D736C6963653C
:1036E00020746865206D6F64656C20616761696E28
:1036F0002E205072696E742063616E63656C6C6518
:10370000642E00D200507265737320746865206B5C
:103710006E6F6220746F2070726568656174206ED0
:103720006F7A7A6C6520616E6420636F6E74696E67
:1037300075652E00C500506C6561736520707265FB
:10374000737320746865206B6E6F6220746F2075D0
:103750006E6C6F61642066696C616D656E7400E704
:103760000052656D6F7665206F6C642066696C61D0
:103770006D656E7420616E64207072657373207461
:103780006865206B6E6F6220746F20737461727451
:10379000206C6F6164696E67206E65772066696C66
:1037A000616D656E742E001100616E64207072652B
:1037B000737320746865206B6E6F62007E00496EC3
:1037C000736572742066696C616D656E740031009A
:1037D000436F6C6F72206E6F7420636F72726563DB
:1037E0007400590046696C616D656E74206E6F746B
:1037F000206C6F616465640070004368616E67658A
:103800006420636F72726563746C793F008C004C46
:103810006F6164696E6720636F6C6F72006F004345
:1038200068616E676520737563636573732100C398
:1038300000506C65617365206F70656E2069646C03
:10384000657220616E642072656D6F7665206669B1
:103850006C616D656E74206D616E75616C6C792E36
:103860000036015761732066696C616D656E742066
:10387000756E6C6F616420737563636573736675D1
:103880006C3F00D100506C65617365207570677284
:103890006164652E00B1004E6577206669726D77B0
:1038A0006172652076657273696F6E2061766169F9
:1038B0006C61626C653A00310157616974696E67C9
:1038C00020666F722050494E44412070726F6265CD
:1038D00020636F6F6C696E670037004372617368B5
:1038E0002064657465637465642E20526573756D1C
:1038F00065207072696E743F0036004372617368B0
:103900002064657465637465642E00780043686F95
:103910006F73652065787472756465723A0079001A
:1039200043686F6F73652066696C616D656E743A8C
:1039300000AC004E6F206D6F76652E000E01536F48
:103940006D652070726F626C656D20656E636F755A
:103950006E74657265642C205A2D6C6576656C6991
:103960006E6720656E666F72636564202E2E2E0072
:103970001201537461626C6520616D6269656E74D9
:103980002074656D70657261747572652032312DB9
:10399000323643206973206E65656465642061205A
:1039A0007269676964207374616E64206973207240
:1039B000657175697265642E00C900506C6561732C
:1039C000652072756E2058595A2063616C69627265
:1039D0006174696F6E2066697273742E002F0157CF
:1039E00061697420666F7220757365722E2E2E00C9
:1039F0009E004D4B33206669726D7761726520645D
:103A000065746563746564206F6E204D4B3353207D
:103A10007072696E74657200FF0050727573612078
:103A20006933204D4B33204F4B2E002400426C61F4
:103A3000636B6F7574206F636375727265642E209B
:103A40005265636F766572207072696E743F00FA1A
:103A50000053656C66746573742077696C6C2062C2
:103A6000652072756E20746F2063616C696272618B
:103A700074652061636375726174652073656E732C
:103A80006F726C657373207265686F6D696E672EF7
:103A90000021015468657265206973207374696C34
:103AA0006C2061206E65656420746F206D616B65AC
:103AB000205A2063616C6962726174696F6E2E2096
:103AC000506C6561736520666F6C6C6F77207468ED
:103AD00065206D616E75616C2C2063686170746522
:103AE000722046697273742073746570732C20732E
:103AF000656374696F6E2043616C69627261746999
:103B00006F6E20666C6F772E00DD005072696E74E8
:103B1000657220686173206E6F74206265656E2027
:103B200063616C69627261746564207965742E20CA
:103B3000506C6561736520666F6C6C6F772074687C
:103B400065206D616E75616C2C20636861707465B1
:103B5000722046697273742073746570732C2073BD
:103B6000656374696F6E2043616C69627261746928
:103B70006F6E20666C6F772E00B6004F6C642073FA
:103B8000657474696E677320666F756E642E204469
:103B9000656661756C74205049442C2045737465CA
:103BA0007073206574632E2077696C6C20626520C9
:103BB0007365742E0033015761726E696E673A2027
:103BC000626F7468207072696E74657220747970A7
:103BD0006520616E64206D6F74686572626F6172DA
:103BE000642074797065206368616E6765642E0077
:103BF00035015761726E696E673A207072696E7432
:103C000065722074797065206368616E6765642EE3
:103C10000034015761726E696E673A206D6F746887
:103C20006572626F61726420747970652063686187
:103C30006E6765642E003D0158595A2063616C69B6
:103C400062726174696F6E20616C6C207269676862
:103C5000742E20536B65772077696C6C2062652029
:103C6000636F72726563746564206175746F6D61F2
:103C7000746963616C6C792E003E0158595A206357
:103C8000616C6962726174696F6E20616C6C207224
:103C9000696768742E20582F5920617865732061F8
:103CA000726520736C696768746C7920736B6577D3
:103CB00065642E20476F6F64206A6F6221004101A6
:103CC00058595A2063616C6962726174696F6E2021
:103CD0006F6B2E20582F59206178657320617265B3
:103CE0002070657270656E646963756C61722E20F8
:103CF000436F6E67726174756C6174696F6E732166
:103D000000430158595A2063616C69627261746999
:103D10006F6E20636F6D70726F6D697365642E20B6
:103D200052696768742066726F6E742063616C6993
:103D300062726174696F6E20706F696E74206E6F4D
:103D40007420726561636861626C652E004201587F
:103D5000595A2063616C6962726174696F6E206385
:103D60006F6D70726F6D697365642E2046726F6E31
:103D7000742063616C6962726174696F6E20706F28
:103D8000696E7473206E6F7420726561636861621E
:103D90006C652E00470158595A2063616C69627244
:103DA0006174696F6E206661696C65642E2052696A
:103DB0006768742066726F6E742063616C696272EA
:103DC0006174696F6E20706F696E74206E6F7420FD
:103DD000726561636861626C652E00460158595ACC
:103DE0002063616C6962726174696F6E20666169DB
:103DF0006C65642E2046726F6E742063616C69621C
:103E0000726174696F6E20706F696E7473206E6F6B
:103E10007420726561636861626C652E003A0158B6
:103E2000595A2063616C6962726174696F6E2066B1
:103E300061696C65642E20506C6561736520636FE9
:103E40006E73756C7420746865206D616E75616C3D
:103E50002E00450158595A2063616C696272617481
:103E6000696F6E206661696C65642E20426564200E
:103E700063616C6962726174696F6E20706F696EE4
:103E80007420776173206E6F7420666F756E642E78
:103E900000C400506C6561736520706C61636520BF
:103EA000737465656C207368656574206F6E206837
:103EB0006561746265642E003D0044697374616ECF
:103EC0006365206265747765656E20746970206F24
:103ED0006620746865206E6F7A7A6C6520616E6406
:103EE000207468652062656420737572666163651D
:103EF00020686173206E6F74206265656E20736543
:103F000074207965742E20506C6561736520666F2E
:103F10006C6C6F7720746865206D616E75616C2CB8
:103F200020636861707465722046697273742073CF
:103F3000746570732C2073656374696F6E204669B5
:103F4000727374206C617965722063616C6962724E
:103F50006174696F6E2E00BE00506C6163652061F4
:103F6000207368656574206F6620706170657220CB
:103F7000756E64657220746865206E6F7A7A6C6500
:103F800020647572696E67207468652063616C696E
:103F900062726174696F6E206F66206669727374F5
:103FA000203420706F696E74732E20496620746807
:103FB00065206E6F7A7A6C652063617463686573DF
:103FC000207468652070617065722C20706F776551
:103FD00072206F666620746865207072696E746501
:103FE0007220696D6D6564696174656C792E00C8B5
:103FF00000506C656173652072656D6F7665207326
:104000007465656C2073686565742066726F6D20D9
:10401000686561746265642E008000497320737462
:1040200065656C207368656574206F6E20686561D6
:10403000746265643F000600206F66203400F30060
:10404000536561726368696E6720626564206361AD
:104050006C6962726174696F6E20706F696E740052
:104060000700206F6620390094004D6561737572FA
:10407000696E67207265666572656E636520686546
:1040800069676874206F662063616C69627261742D
:10409000696F6E20706F696E7400C000506C65614E
:1040A000736520636C65616E20746865206E6F7A3D
:1040B0007A6C6520666F722063616C6962726174EC
:1040C000696F6E2E20436C69636B207768656E2084
:1040D000646F6E652E0014004175746F20686F6DFB
:1040E0006500E6005265636F766572696E672070E1
:1040F00072696E742020202000CB00506C656173C3
:10410000652077616974001F00426564206C6576E4
:10411000656C696E67206661696C65642E20536505
:104120006E736F72206469646E742074726967675D
:1041300065722E20446562726973206F6E206E6F07
:104140007A7A6C653F2057616974696E6720666F83
:10415000722072657365742E00CA00506C656173BD
:104160006520757064617465206669726D7761722F
:104170006520696E20796F7572204D4D55322E2065
:1041800057616974696E6720666F72207265736526
:10419000742E000901536F7274696E672066696C32
:1041A0006573000301536F6D652066696C6573204C
:1041B00077696C6C206E6F7420626520736F727407
:1041C00065642E204D61782E204E6F2E206F662064
:1041D00066696C657320696E203120666F6C64655A
:1041E0007220666F7220736F7274696E67206973D4
:1041F000203130302E003C01596F752063616E20F4
:10420000616C7761797320726573756D6520746870
:10421000652057697A6172642066726F6D20436110
:104220006C6962726174696F6E202D3E2057697AE5
:104230006172642E00C200506C6561736520636812
:1042400065636B206F75722068616E64626F6F6B5F
:1042500020616E6420666978207468652070726FD2
:10426000626C656D2E205468656E20726573756D85
:1042700065207468652057697A61726420627920CC
:104280007265626F6F74696E672074686520707202
:10429000696E7465722E000E00416C6C206973208B
:1042A000646F6E652E204861707079207072696E3F
:1042B00074696E6721008300496620796F752068F4
:1042C000617665206164646974696F6E616C2073E6
:1042D0007465656C207368656574732C2063616C0C
:1042E00069627261746520746865697220707265B4
:1042F0007365747320696E2053657474696E677397
:10430000202D204857205365747570202D2053743C
:1043100065656C207368656574732E00BF00506C12
:104320006561736520636C65616E206865617462A8
:10433000656420616E64207468656E2070726573B8
:104340007320746865206B6E6F622E003F00446FAF
:1043500020796F752077616E7420746F207265709C
:10436000656174206C617374207374657020746F60
:1043700020726561646A7573742064697374616E18
:104380006365206265747765656E206E6F7A7A6CFE
:104390006520616E6420686561746265643F00FB3E
:1043A0000053656C656374206E6F7A7A6C6520705B
:1043B0007265686561742074656D7065726174758D
:1043C0007265207768696368206D617463686573DE
:1043D00020796F7572206D6174657269616C2E0051
:1043E0007F0049732066696C616D656E74206C6F27
:1043F000616465643F00B4004E6F7720492077699F
:104400006C6C2070726568656174206E6F7A7A6C6E
:104410006520666F7220504C412E007C0049207749
:10442000696C6C2072756E207A2063616C696272AF
:104430006174696F6E206E6F772E00B7004E6F77D4
:104440002072656D6F76652074686520746573747D
:10445000207072696E742066726F6D20737465656A
:104460006C2073686565742E00CC00506C656173B8
:10447000652072656D6F7665207368697070696E0E
:10448000672068656C706572732066697273742E3C
:10449000007B00492077696C6C2072756E207879FA
:1044A0007A2063616C6962726174696F6E206E6FED
:1044B000772E2049742077696C6C2074616B6520BD
:1044C000617070726F782E203132206D696E732E9C
:1044D00000610046697273742C20492077696C6C06
:1044E0002072756E207468652073656C66746573E0
:1044F0007420746F20636865636B206D6F73742024
:10450000636F6D6D6F6E20617373656D626C792082
:1045100070726F626C656D732E006C0048692C20A0
:104520004920616D20796F7572204F726967696EDD
:10453000616C205072757361206933207072696EEE
:104540007465722E20576F756C6420796F75206CBE
:10455000696B65206D6520746F20677569646520DF
:10456000796F75207468726F75676820746865204C
:1045700073657475702070726F636573733F00822A
:104580000048692C204920616D20796F7572204F99
:10459000726967696E616C2050727573612069334E
:1045A000207072696E7465722E20492077696C6C78
:1045B00020677569646520796F75207468726F75FE
:1045C000676820612073686F7274207365747570FA
:1045D0002070726F636573732C20696E2077686931
:1045E000636820746865205A2D6178697320776943
:1045F0006C6C2062652063616C69627261746564D1
:104600002E205468656E2C20796F752077696C6C4C
:1046100020626520726561647920746F2070726910
:104620006E742E004000452D636F72726563743A9C
:104630000070015A2D636F72726563743A004B010A
:10464000592D636F72726563743A004001582D638F
:104650006F72726563743A00130053706F6F6C4A27
:104660006F696E00480043757474657200520146AC
:1046700069726D77617265005C014D6F64656C00F5
:1046800053015374726963740054015761726E0070
:104690004F01436865636B73005D014E6F7A7A6CFE
:1046A0006520642E0005014E6F6E65000801416CA7
:1046B000706861626574000401536F7274000601D2
:1046C00054696D6500F0005344206361726400F129
:1046D00000466C61736841697200F40053656C6553
:1046E0006374206C616E677561676500EE005250FF
:1046F0006920706F727400190154656D702E20630B
:10470000616C2E0088004C696E2E20636F7272659A
:104710006374696F6E005501485720536574757056
:10472000005100462E206175746F6C6F6164003C0F
:104730000044697361626C652073746570706572A2
:104740007300A8004D6F76652061786973001F01C2
:1047500054656D706572617475726500EC00526528
:1047600073756D696E67207072696E7400BD00505C
:10477000494E44412048656174696E67002C0043CE
:10478000616C6962726174696F6E20646F6E65003E
:104790002A0043616C6962726174696E67205A0015
:1047A0001B0042656420646F6E65001C00426564F6
:1047B0002048656174696E67006A004865617469C4
:1047C0006E6720646F6E652E006B004865617469CA
:1047D0006E670090004D3131372046697273742046
:1047E0006C617965722063616C2E00BB0050494496
:1047F0002063616C2E2066696E697368656400BA17
:10480000005049442063616C2E202020202020206D
:104810002020202000DB005072696E7420706175CA
:1048200073656400DE005072696E742046414E006C
:10483000B8004E6F7A7A6C652046414E0099004D63
:104840004D55206661696C73009B004D4D55206C81
:104850006F6164206661696C7300A2004D4D552044
:10486000706F776572206661696C73002601546F02
:1048700074616C206661696C7572657300570046DF
:10488000696C2E2072756E6F7574730081004C61B7
:104890007374207072696E74206661696C757265DC
:1048A0007300D400506F776572206661696C757211
:1048B0006573000D0152756E6F7574730038004397
:1048C00072617368002B01546F74616C0084004C3A
:1048D000617374207072696E7400D00050494E4448
:1048E00041000F00416D6269656E74002D01566FC5
:1048F0006C746167657300200154656D7065726149
:10490000747572657300230042656C742073746162
:10491000747573006C0153656E736F7220696E66F7
:104920006F004E00457874727564657220696E661A
:104930006F00390158595A2063616C2E20646574E8
:1049400061696C73002E01756E6B6E6F776E00A6D9
:10495000004D4D553220636F6E6E65637465640063
:104960003A00446174653A006D00686F77746F2E89
:10497000707275736133642E636F6D006400666FCF
:1049800072756D2E707275736133642E636F6D0076
:10499000E200707275736133642E636F6D002801DD
:1049A000746F20756E6C6F61642066696C616D65F3
:1049B0006E74002701746F206C6F61642066696CEF
:1049C000616D656E7400DA005072657373207468EF
:1049D00065206B6E6F62000B003E43616E63656C19
:1049E00000650150726568656174696E6720746F57
:1049F0002063757400660150726568656174696E44
:104A00006720746F20656A65637400D70050726513
:104A100068656174696E6720746F20756E6C6F6174
:104A20006400D60050726568656174696E672074B1
:104A30006F206C6F6164005F0046696E697368691E
:104A40006E67206D6F76656D656E74730021004230
:104A500072696768746E657373006E014173736980
:104A6000737400A00053696C656E74000F014F6E83
:104A70006365000C01536F756E64000A014C6F751D
:104A800064005A014D4D55204D6F6465003400435C
:104A900072617368206465742E00A30053746561AD
:104AA0006C7468009F004E6F726D616C005500461B
:104AB000616E7320636865636B00560046696C2EF7
:104AC0002073656E736F72006E004368616E676578
:104AD0002066696C616D656E74006300466C6F776B
:104AE00000100153706565640057014D61676E6584
:104AF000747320636F6D702E00AE004E2F41004C1A
:104B0000014F6666004D014F6E0071015A2D7072A3
:104B10006F6265206E722E0058014D657368003F0C
:104B20000154696D656F7574009D004D6F6465007B
:104B300010004175746F004B0044696D0020004205
:104B400072696768740093004C6576656C204469EF
:104B50006D6D65640092004C6576656C20427269EB
:104B600067687400530046616E2073706565640069
:104B7000220042656400B5004E6F7A7A6C650000D1
:104B80000153657474696E677300D5005072696E65
:104B9000742061626F7274656400140153746F70E5
:104BA000207072696E74003000436865636B696ED3
:104BB000672066696C65005E0046696C6520696EF9
:104BC000636F6D706C6574652E20436F6E74696ED3
:104BD000756520616E797761793F00FFFF0452654A
:104BE00066726573680091004D61696E004600450C
:104BF00072726F72202D20737461746963206D6509
:104C00006D6F727920686173206265656E206F76C2
:104C100065727772697474656E002F004361726407
:104C20002072656D6F766564004E014261636B00B2
:104C300068015072696E746572206E6F7A7A6C6565
:104C4000206469616D657465722064696666657269
:104C5000732066726F6D2074686520472D636F64E2
:104C6000652E20506C6561736520636865636B20F9
:104C70007468652076616C756520696E2073657453
:104C800074696E67732E205072696E742063616E52
:104C900063656C6C65642E0067015072696E7465A3
:104CA00072206E6F7A7A6C65206469616D657465D7
:104CB0007220646966666572732066726F6D207417
:104CC000686520472D636F64652E20436F6E74699D
:104CD0006E75653F00E3005265617220736964651B
:104CE000205B756D5D00660046726F6E742073699F
:104CF00064655B756D5D00ED0052696768742073D3
:104D00006964655B756D5D0087004C656674207332
:104D1000696465205B756D5D00FC005365742074EB
:104D2000656D70657261747572653A001C01546539
:104D30006D70657261747572652063616C69627211
:104D40006174696F6E206661696C6564001D015451
:104D5000656D70657261747572652063616C6962FE
:104D6000726174696F6E2069732066696E69736819
:104D7000656420616E64206163746976652E2054D9
:104D8000656D702E2063616C6962726174696F6E0B
:104D90002063616E2062652064697361626C656482
:104DA00020696E206D656E752053657474696E6739
:104DB000732D3E54656D702E2063616C2E0056007D
:104DC00046696C2E2073656E736F7200FFFF464953
:104DD0004E444100D00050494E4441001B015465EF
:104DE0006D702E2063616C6962726174696F6E0010
:104DF000E90052657365742058595A2063616C69E3
:104E000062722E00BC005049442063616C6962727A
:104E10006174696F6E001D00426564206C65766583
:104E20006C20636F72726563740095004D657368E2
:104E300020426564204C6576656C696E67002700CA
:104E400043616C696272617465205A002600436197
:104E50006C6962726174652058595A00F700536595
:104E60006C66746573742020202020202020200090
:104E70001E0042656C74207465737420202020200D
:104E800020202000380157697A6172640044014C87
:104E90006F616420616C6C00C600506C6561736565
:104EA0002070756C6C206F75742066696C616D651F
:104EB0006E7420696D6D6564696174656C79002A32
:104EC00001556E6C6F6164696E672066696C616D17
:104ED000656E7400EA005265736574006A0152657C
:104EE0006E616D650060004669727374206C617953
:104EF00065722063616C2E006B0153656C65637491
:104F0000006F01537465656C207368656574730088
:104F10001601537570706F72740050004661696CB1
:104F2000207374617473204D4D55005200466169C1
:104F30006C2073746174730013015374617469732A
:104F4000746963732020002D0043616C6962726193
:104F500074696F6E0015004175746F4C6F61642049
:104F600066696C616D656E740047004375742066F8
:104F7000696C616D656E74004100456A65637420FB
:104F800066696C616D656E74002901556E6C6F61A8
:104F9000642066696C616D656E74008F004C6F6192
:104FA0006420746F206E6F7A7A6C65008B004C6F92
:104FB00061642066696C616D656E7400AD004E6F52
:104FC000205344206361726400D9005072696E748A
:104FD0002066726F6D20534400EB00526573756D4F
:104FE00065207072696E7400B90050617573652038
:104FF0007072696E7400CE005072656865617400ED
:10500000240154756E650089004C697665206164E1
:105010006A757374205A007D00496E666F20736351
:105020007265656E00300157616974696E6720664C
:105030006F72206E6F7A7A6C6520616E6420626593
:105040006420636F6F6C696E6700F50053656C6672
:105050002074657374204F4B00F60053656C662016
:1050600074657374207374617274202000D80050CA
:1050700072696E742066616E3A004D0045787472F4
:10508000756465722066616E3A00250043616C6943
:1050900062726174696E6720686F6D65000D004112
:1050A0006C6C20636F727265637420202020202056
:1050B000007400436865636B696E672073656E7387
:1050C0006F727320007300436865636B696E6720BD
:1050D000686F74656E642020007100436865636BBF
:1050E000696E6720626564202020202000770043DD
:1050F0006865636B696E67205A2061786973007612
:1051000000436865636B696E672059206178697335
:10511000007500436865636B696E6720582061788D
:105120006973007200436865636B696E6720656E22
:105130006473746F707300150153544F505045449D
:105140002E20009C004D4D55204F4B2E2052657354
:10515000756D696E672E2E2E0096004D4D55204FB1
:105160004B2E20526573756D696E6720706F736981
:1051700074696F6E2E2E2E0097004D4D55204F4BAB
:105180002E20526573756D696E672074656D70654C
:105190007261747572652E2E2E0062004669782049
:1051A00074686520697373756520616E6420746826
:1051B000656E20707265737320627574746F6E20F3
:1051C0006F6E204D4D5520756E69742E00DC0050B9
:1051D0007265737320746865206B6E6F6220746FE4
:1051E00020726573756D65206E6F7A7A6C652074B8
:1051F000656D70657261747572652E00A1004D4D0C
:1052000055206E65656473207573657220617474D2
:10521000656E74696F6E2E00490043757474696E13
:10522000672066696C616D656E7400C700506C65BF
:105230006173652072656D6F76652066696C616D5E
:10524000656E7420616E64207468656E207072658E
:10525000737320746865206B6E6F622E0042004588
:105260006A656374696E672066696C616D656E74EA
:10527000009A004D4D55206C6F6164206661696C29
:1052800065642020202020006D015368656574004E
:105290003B0159657300AF004E6F00B2004E6F7452
:1052A000207370696E6E696E670011015370696ECC
:1052B0006E696E6700540046616E207465737400F9
:1052C000F90053656C6674657374206661696C657A
:1052D0006420200069012573206C6576656C20656B
:1052E0007870656374656400500146616C73652075
:1052F00074726967676572696E67005A0046696C07
:10530000616D656E742073656E736F720017015363
:1053100077617070656400670046726F6E742F6C01
:105320006566742066616E730019004178697300C8
:10533000180041786973206C656E677468008E0090
:105340004C6F6F73652070756C6C65790085004CCF
:1053500065667420686F74656E642066616E3F00D8
:10536000650046726F6E74207072696E742066619B
:105370006E3F004300456E6473746F70206E6F74EF
:1053800020686974004400456E6473746F7000A7F0
:10539000004D6F746F72004500456E6473746F70DA
:1053A00073003701576972696E67206572726F7298
:1053B000001A00426564202F204865617465720000
:1053C000B0004E6F7420636F6E6E65637465640029
:1053D00068004865617465722F546865726D697301
:1053E000746F7200C100506C6561736520636865FD
:1053F000636B203A00F80053656C66746573742023
:105400006572726F722021004F0045787472756466
:10541000657200AB004D6F7665205A00AA004D6F93
:105420007665205900A9004D6F7665205800090067
:10543000437261736820646574656374696F6E207C
:1054400063616E0A6265207475726E6564206F6EAA
:10545000206F6E6C7920696E0A4E6F726D616C20E0
:105460006D6F6465000A005741524E494E473A0A33
:10547000437261736820646574656374696F6E0A52
:1054800064697361626C656420696E0A5374656156
:105490006C7468206D6F64650016004175746F6CE4
:1054A0006F6164696E672066696C616D656E7420FA
:1054B000617661696C61626C65206F6E6C792077D2
:1054C00068656E2066696C616D656E742073656ECB
:1054D000736F72206973207475726E6564206F6ECD
:1054E0002E2E2E004A004552524F523A2046696CE9
:1054F000616D656E742073656E736F7220697320C1
:105500006E6F7420726573706F6E64696E672C20A5
:10551000706C6561736520636865636B20636F6E93
:105520006E656374696F6E2E005B014D6F6465205C
:105530006368616E676520696E2070726F6772655F
:105540007373202E2E2E003300436F707920736505
:105550006C6563746564206C616E67756167653F37
:1055600000F40053656C656374206C616E6775614F
:105570006765003B00436F6D6D756E697479206DD2
:1055800061646500280043616C6962726174650042
:10559000FFFF536865657420252E37730A5A206F04
:1055A00066667365743A20252B312E3366206D6D47
:1055B0000A2563436F6E74696E75650A25635374BB
:1055C0006172742066726F6D207A65726F00E100FF
:1055D000506C65617365206C6F61642066696C61F5
:1055E0006D656E742066697273742E0018015365C0
:1055F0006C6563742066696C616D656E743A007ADF
:105600000046696C616D656E74002E0043616E63C7
:10561000656C00EF0052756E6E696E672057697A8F
:105620006172642077696C6C2064656C65746520B8
:1056300063757272656E742063616C696272617405
:10564000696F6E20726573756C747320616E64206F
:1056500073746172742066726F6D20746865206265
:105660006567696E6E696E672E20436F6E74696E32
:1056700075653F00CF0050726568656174696E673B
:10568000206E6F7A7A6C652E20506C656173652090
:10569000776169742E008D004C6F6164696E6720BC
:1056A00066696C616D656E7400DF00506C656173D6
:1056B0006520696E736572742066696C616D656ED4
:1056C0007420696E746F20746865206578747275D3
:1056D0006465722C207468656E2070726573732027
:1056E000746865206B6E6F6220746F206C6F6164EC
:1056F0002069742E00E000506C6561736520696E4E
:10570000736572742066696C616D656E7420696E74
:10571000746F207468652066697273742074756292
:1057200065206F6620746865204D4D552C20746887
:10573000656E20707265737320746865206B6E6F80
:105740006220746F206C6F61642069742E004901BF
:10575000546865207072696E7465722077696C6C2C
:10576000207374617274207072696E74696E672040
:1057700061207A69672D7A6167206C696E652E20D9
:10578000526F7461746520746865206B6E6F62205F
:10579000756E74696C20796F75207265616368201D
:1057A000746865206F7074696D616C2068656967E5
:1057B00068742E20436865636B2074686520706987
:1057C00063747572657320696E2074686520686102
:1057D0006E64626F6F6B202843616C6962726174E2
:1057E000696F6E2063686170746572292E001A01FA
:1057F00053656C6563742074656D70657261747552
:105800007265207768696368206D61746368657389
:1058100020796F7572206D6174657269616C2E00FC
:10582000350043686F6F736520612066696C616D38
:10583000656E7420666F72207468652046697273A5
:1058400074204C617965722043616C696272617485
:10585000696F6E20616E642073656C656374206986
:105860007420696E20746865206F6E2D7363726595
:10587000656E206D656E752E00B3004E6F77204902
:105880002077696C6C2063616C6962726174652059
:1058900064697374616E6365206265747765656EB3
:1058A00020746970206F6620746865206E6F7A7A44
:1058B0006C6520616E642068656174626564207344
:1058C0007572666163652E003200436F6F6C646FA2
:1058D000776E00CD005072656865617420746865EC
:1058E000206E6F7A7A6C6521004C004552524F52FF
:1058F0003A00580046696C616D656E742065787475
:10590000727564696E672026207769746820636FFA
:10591000727265637420636F6C6F723F0017004191
:1059200075746F6C6F6164696E672066696C616D18
:10593000656E74206973206163746976652C206AD2
:1059400075737420707265737320746865206B6E54
:105950006F6220616E6420696E736572742066697F
:105960006C616D656E742E2E2E005B0046696C6155
:105970006D656E742075736564005C005072696EAD
:10598000742074696D65002201546F74616C206627
:10599000696C616D656E74002301546F74616C20D5
:1059A0007072696E742074696D65004801592064D5
:1059B000697374616E63652066726F6D206D696EC8
:1059C0000086004C65667400F200526967687400D6
:1059D00098004D6561737572656420736B6577001F
:1059E0000B01536C6967687420736B65773A000725
:1059F0000153657665726520736B65773A00080020
:105A00005B303B305D20706F696E74206F6666732B
:105A10006574000C0041646A757374696E67205A7E
:105A20003A00690048656174696E67206469736152
:105A3000626C656420627920736166657479207494
:105A4000696D65722E002564206279746573207714
:105A500072697474656E20746F20454550524F4DC5
:105A6000206174206164647265737320307825301E
:105A70003478004433202D20526561642F577269B9
:105A8000746520454550524F4D0A00442D31202D5C
:105A900020456E646C657373206C6F6F700A0053E1
:105AA00044207072696E74696E6720627974652033
:105AB0000041637469766520457874727564657217
:105AC0003A2000496E76616C69642065787472755D
:105AD000646572005A204F666673657400556E6B7C
